S00F000050494F2D4952512E7372656314
S2144000008825402011154000C1154000C11540000C
S214400010C1154000C1154000C11540000000000059
S214400020000000000000000000000000C115400075
S214400030C115400000000000C1154000C115400039
S214400040C1154000C1154000C1154000C115400013
S214400050C1154000C1154000C1154000C115400003
S214400060C115400000000000850C40009D0C40007B
S214400070B50C4000C1154000C1154000C1154000F8
S214400080CD0C4000E50C4000C1154000C1154000B5
S214400090C1154000C1154000C1154000C1154000C3
S2144000A0C1154000C1154000C1154000C1154000B3
S2144000B0C115400089064000C1154000C1154000EA
S2144000C0C1154000C1154000C1154000C115400093
S2144000D000000000C115400000000000C1154000AF
S2144000E0A1064000C1154000C1154000C1154000A2
S2144000F0C1154000C1154000C1154000C115400063
S214400100C1154000C1154000C1154000C115400052
S214400110C115400000000000000000000000000084
S214400120C1154000C1154000C1154000C115400032
S214400130C115400000000000C1154000C115400038
S21440014010B5054C237833B9044B13B10448AFF3CC
S21440015000800123237010BD4404402000000000AE
S214400160282040000C4B43B10C480D4910B5AFF366
S21440017000800C48036823B910BD0A48036833B9A9
S2144001807047094B002BF7D0BDE810401847064B88
S214400190002BF5D0184700BF000000002820400084
S2144001A048044020282040000000000080B582B06F
S2144001B000AF78607B68072B31D801A252F823F055
S2144001C01D024000E1014000E9014000F10140000D
S2144001D0F9014000010240000902400013024000BD
S2144001E00020114B98471AE001200F4B984716E025
S2144001F000200E4B984712E010200C4B98470EE01C
S21440020020200A4B98470AE03E210020084B98479A
S21440021005E03E210120064B984700E000BF00BFA6
S2144002200837BD4680BD00BFFD0D4000690E40004A
S214400230D90E400080B582B000AF78607B68072B4F
S21440024026D801A252F823F0690240006D02400011
S2144002506D0240007F0240007F0240007F02400067
S2144002607F0240007F024000012312E00B4B98477C
S2144002700346002B14BF01230023DBB209E0084BE2
S21440028098470346002B14BF01230023DBB200E04F
S214400290002318460837BD4680BD00BF350E4000D7
S2144002A0510F400080B483B000AF78607B68072B66
S2144002B025D801A252F823F0D9024000DF024000C0
S2144002C0E5024000EB024000EF024000F30240002F
S2144002D0F7024000FB0240004FF4FA4310E04FF4B0
S2144002E000430DE04FF400430AE0084B08E0084B9B
S2144002F006E0084B04E0074B02E0064B00E0002314
S21440030018460C37BD465DF8047B704700093D0033
S21440031000127A00001BB70080B582B000AF0346DB
S214400320FB7100BFFB791846054B9847034683F0A0
S2144003300103DBB2002BF5D100BF0837BD4680BDB8
S2144003403502400080B586B000AFF8607A603B600A
S2144003500B46FB727B68002B07D13B68002B04D111
S214400360FB684FF470021A6019E0FB7A18460E4B91
S214400370984702467B68B2FBF3F37B617B693A6839
S21440038002FB03F37B613B68013B1A04074B1340B7
S2144003907A68D2B2134343F47C52FB681A6000BFBB
S2144003A01837BD4680BD00BFA50240000000FF07CD
S2144003B080B582B000AF786039603B68002B08D1CA
S2144003C0094B9847094A7B681B6843F00053936281
S2144003D005E0064A7B681B6843F48033D36100BF60
S2144003E00837BD4680BD00BF6D0F400000060E407A
S2144003F080B582B000AF78607B68002B03D1054B98
S2144004009847034602E0044B984703461846083789
S214400410BD4680BD890F4000A50F400080B582B024
S21440042000AF0346FB71FB79033B042B08D8FB79EE
S2144004301846064B9847FB791846054B984700E008
S21440044000BF00BF0837BD4680BD00BFAD014000BD
S2144004501903400080B582B000AF786000BF78686E
S214400460044B98470346002BF9D00023184608371C
S214400470BD4680BDF103400080B500AF0620054B69
S2144004809847024613469B0013449A001344184666
S21440049080BD00BFA502400080B500AF024B984724
S2144004A00346184680BD00BF7904400090B583B02F
S2144004B000AF1348134B98470620134B9847381DF8
S2144004C0192301220621114CA0473B1D0021184646
S2144004D00F4B984700200F4B984702200E4B9847EB
S2144004E000200E4B98470E4B98470E4B98470346B6
S2144004F01846044B984700BF0C37BD4690BD00BF1A
S21440050000A3E111311740001D04400045034000A0
S214400510B103400055044000FD0C4000790D4000FA
S214400520C91540009904400080B483B000AF78609D
S2144005307B681B6B18460C37BD465DF8047B7047DE
S21440054080B483B000AF78607B68DB6A18460C37AF
S214400550BD465DF8047B704780B483B000AF7860DA
S2144005607B68094A934201D1012306E07B68074A2B
S214400570934201D1002300E0002318460C37BD46C5
S2144005805DF8047B704700BF0040064000C0034053
S21440059080B582B000AF03463960FB71FB790A49EB
S2144005A01A013B68134451F82330002B07D0FB79DF
S2144005B005491A013B68134451F82330984700BF59
S2144005C00837BD4680BD00BFDC04402090B587B0EC
S2144005D000AF78607868284B984704467868274B81
S2144005E0984703462340FB607868254B9847386118
S2144005F000237B6139E07B690B2B0FD801227B6996
S21440060002FA03F31A46FB681340002B2AD03B69D4
S214400610DBB2796918461B4B984723E07B690E2B63
S21440062010D87B690C33012202FA03F31A46FB68A2
S2144006301340002B16D03B69DBB279691846114B44
S21440064098470FE07B690F33012202FA03F31A46FC
S214400650FB681340002B05D03B69DBB2796918462E
S214400660084B98477B6901337B617B690F2BC2D966
S21440067000BF1C37BD4690BD2905400041054000DF
S214400680590540009105400080B500AF0248034B35
S214400690984700BF80BD00BF00C00340CD05400066
S2144006A080B500AF0248034B984700BF80BD00BFEF
S2144006B000400640CD05400080B485B000AFF860ED
S2144006C0B9607A607B68002B03D0FB68BA685A66CC
S2144006D002E0FB68BA681A6600BF1437BD465DF88C
S2144006E0047B704780B485B000AFF860B9607A602C
S2144006F0FB68BA68C3F884207B685B004FF400420E
S214400700B2FBF3F3013BC3F30D02FB68C3F88C2046
S21440071000BF1437BD465DF8047B704780B483B095
S21440072000AF786039607B683A681A6300BF0C3760
S214400730BD465DF8047B704780B483B000AF7860F8
S21440074039607B683A685A6300BF0C37BD465DF82F
S214400750047B704780B487B000AFF860B9607A60B9
S214400760BB68B3F1405F03D0BB68B3F1605F03D1B1
S214400770FB689B6B7B6102E0FB68DB6B7B617A69A5
S2144007807B681340002B01D1002300E0012318466C
S2144007901C37BD465DF8047B704780B487B000AF19
S2144007A0F860B9607A60FB687A685A64BB68B3F1EF
S2144007B0C05F4AD0B3F1C05F08D8B3F1006F16D01F
S2144007C0B3F1805F2CD0002B69D064E0B3F1205F9A
S2144007D065D0B3F1205F03D8B3F1005F4AD05AE04A
S2144007E0B3F1405F5BD0B3F1605F58D053E0FB6835
S2144007F01B6F7B61FB681A6F7B68D9437B690B4034
S2144008001A40FB681A67FB685B6F7B61FB685A6F30
S2144008107B68D9437B690B401A40FB685A673AE0CD
S214400820FB681B6F7B617A687B691A43FB681A67B3
S214400830FB685B6F7B61FB685A6F7B68D9437B695B
S2144008400B401A40FB685A6725E0FB681B6F7B61CC
S214400850FB681A6F7B68D9437B690B401A40FB687C
S2144008601A67FB685B6F7B617A687B691A43FB6833
S2144008705A6710E0FB681B6F7B617A687B691A4396
S214400880FB681A67FB685B6F7B617A687B691A4313
S214400890FB685A6700BFFB687A685A6000E000BF92
S2144008A01C37BD465DF8047B7047000080B584B0B9
S2144008B000AFF860B9607A60B968F868194B984735
S2144008C07B6803F001031A46B968F868164B9847E8
S2144008D07B6803F00A03002B03D0FB68BA681A62F1
S2144008E002E0FB68BA685A627B6803F00203002B9A
S2144008F004D0FB68BA68C3F8802008E07B6803F041
S2144009000803002B03D0FB68BA68C3F88420FB6852
S214400910BA685A61FB68BA681A6000BF1037BD46AD
S21440092080BD00BFE50A4000B906400080B584B0EF
S21440093000AFF860B9607A603B60B968F868124BFF
S2144009409847BA69B968F868104B98473B68002BD7
S21440095003D0FB68BA681A6502E0FB68BA685A6555
S2144009607B68002B03D0FB68BA681A6302E0FB681A
S214400970BA685A63FB68BA681A61FB68BA681A6054
S21440098000BF1037BD4680BDE50A4000B9064000AE
S21440099090B587B002AFF860B9607A603B60BB68DC
S2144009A0B3F1005F16D0B3F1005F09D8B3F1805FB2
S2144009B010D0B3F1C05F0DD0B3F1006F0AD03DE068
S2144009C0B3F1405F1AD0B3F1605F17D0B3F1205F48
S2144009D00ED033E07A68B968F8681C4B98473B6895
S2144009E003F001031A467968F868194B984727E0E0
S2144009F03A687968F868174B984721E0BB68B3F1C6
S214400A00605F0CBF01230023DBB21A463B6803F04D
S214400A100403002B14BF01230023DBB219463B68B6
S214400A2003F00103002B14BF01230023DBB2009325
S214400A300B467968F868084CA04701E0002300E0C0
S214400A40012318461437BD4690BD00BF9B074000A3
S214400A50B9064000AD0840002D09400080B485B07E
S214400A6000AFF860B9607A607B6803F01003002B33
S214400A7020D0FB68BA68C3F8B0207B6803F0200338
S214400A80002B04D0FB68BA68C3F8D42003E0FB68A8
S214400A90BA68C3F8D0207B6803F04003002B04D02C
S214400AA0FB68BA68C3F8C02008E0FB68BA68C3F8B9
S214400AB0C42003E0FB68BA68C3F8B42000BF14370C
S214400AC0BD465DF8047B704780B483B000AF786065
S214400AD039607B683A681A6400BF0C37BD465DF8DB
S214400AE0047B704780B483B000AF786039607B6821
S214400AF03A685A6400BF0C37BD465DF8047B7047C1
S214400B0080B483B000AF78607B68DB6C18460C37E7
S214400B10BD465DF8047B704780B483B000AF786014
S214400B207B689B6C18460C37BD465DF8047B704767
S214400B3080B584B000AF786039607868264B9847B7
S214400B40F8607868254B98470246FB681340FB6080
S214400B50FB68002B3CD00023BB6034E0204ABB68D7
S214400B601B0113441A683B689A4226D11C4ABB684C
S214400B701B01134404331A68FB681340002B1CD037
S214400B80174ABB681B0113440C331B681449BA68E8
S214400B9012010A4410681249BA6812010A44043223
S214400BA01268114698470E4ABB681B01134404332B
S214400BB01B68DB43FA681340FB60BB680133BB60CD
S214400BC0BB68062B03D8FB68002BC7D100E000BFEC
S214400BD000BF1037BD4680BD010B4000190B4000DA
S214400BE06004402080B586B000AFF860B9607A6097
S214400BF03B60214B1B68062B01D9012338E00023BC
S214400C00FB7511E0FB7D1B011C4A13443B613B69AD
S214400C101A68BB689A4204D13B695A687B689A4214
S214400C2008D0FB7D0133FB75FA7D134B1B689A4257
S214400C30E8D900E000BF3B69BA681A603B697A6849
S214400C405A603B693A689A603B693A6ADA60FA7D6C
S214400C50094B1B6801339A4204D1074B1B6801338A
S214400C60054A13603A687968F868054B9847002348
S214400C7018461837BD4680BDD0044020600440204A
S214400C805D0A400080B500AF0A210248024B9847F3
S214400C9000BF80BD000E0E40310B400080B500AF57
S214400CA00B210248024B984700BF80BD00100E4003
S214400CB0310B400080B500AF0C210248024B9847EC
S214400CC000BF80BD00120E40310B400080B500AF23
S214400CD010210248024B984700BF80BD00140E40CA
S214400CE0310B400080B500AF11210248024B9847B7
S214400CF000BF80BD00160E40310B400080B483B06C
S214400D0000AF78607B68013B032B1AD801A252F8EB
S214400D1023F000BF250D40002B0D4000330D400052
S214400D203B0D400000237B600EE04FF480737B60F9
S214400D300AE04FF440737B6006E04FF400737B603C
S214400D4002E000237B6000BF0A490A4B1B6B23F47A
S214400D5040727B6813430B6300BF064B9B6E03F0E9
S214400D600803002BF9D000BF0C37BD465DF8047B66
S214400D70704700BF00060E4080B485B000AF786074
S214400D801D491D4B1B6B23F070027B6813430B639E
S214400D904FF48053FB6007E0FB68002B01D1012332
S214400DA023E0FB68013BFB60134B9B6E03F008039C
S214400DB0002BF1D0104A104B1B6B23F0030343F07B
S214400DC0020313634FF48053FB6007E0FB68002B7D
S214400DD001D1012309E0FB68013BFB60064B9B6E9B
S214400DE003F00803002BF1D0002318461437BD4605
S214400DF05DF8047B704700BF00060E4080B483B0A9
S214400E0000AF78607B68012B05D10749064B9A688E
S214400E10064B13438B60044B054A1A6000BF0C37E1
S214400E20BD465DF8047B704710180E40000010A5C4
S214400E30080000A580B400AF094B5B6903F080034F
S214400E40002B07D0074B9B6E03F08003002B01D08E
S214400E50012300E000231846BD465DF8047B70473A
S214400E6010180E4000060E4080B483B000AF786085
S214400E701549154B1A6A154B13430B6200BF124BAC
S214400E809B6E03F40033002BF9D00F490E4B1A6AC1
S214400E900F4B13407A68134343F45C130B6200BF56
S214400EA0094B9B6E03F40033002BF9D00649064BE2
S214400EB01A6A084B134043F45C130B6200BF0C37AE
S214400EC0BD465DF8047B704700060E4008003700BC
S214400ED08FFFC8FFFFFFC8FE80B483B000AF7860C6
S214400EE039607B68002B08D01349134B1B6A134AA2
S214400EF01A40134B13430B6218E00F490E4B1A6A05
S214400F00104B13403A68120292B21A430E4B1343E8
S214400F100B6200BF084B9B6E03F00103002BF9D019
S214400F200549054B1A6A094B13430B6200BF0C3741
S214400F30BD465DF8047B704700060E40FCFFC8FEC9
S214400F4002003701FCFFC8FF0100370000003701F0
S214400F5080B400AF044B9B6E03F480331846BD4606
S214400F605DF8047B704700BF00060E4080B400AFBB
S214400F70044B4FF000529A6200BFBD465DF8047BBA
S214400F80704700BF00060E4080B400AF044B9B6E17
S214400F9003F002031846BD465DF8047B704700BF69
S214400FA000060E4080B400AF044B9B6E03F0400337
S214400FB01846BD465DF8047B704700BF00060E40ED
S214400FC080B483B000AF78607B683F2B01D90123A3
S214400FD02FE07B681F2B13D8194B9A6901217B6839
S214400FE001FA03F31A4001217B6801FA03F39A429F
S214400FF01ED0134A01217B6801FA03F3136117E000
S2144010007B68203B7B600E4BD3F8082101217B6830
S21440101001FA03F31A4001217B6801FA03F39A426E
S21440102006D0074A01217B6801FA03F3C2F8003173
S214401030002318460C37BD465DF8047B704700BF5A
S21440104000060E4080B483B000AF7860044A7B68E8
S214401050136000BF0C37BD465DF8047B704700BF89
S2144010600C00402080B483B000AF204B1B6F7B60E9
S2144010707B6823F4C0037B607B6843F480037B601B
S2144010801A4A7B6813671949184B1A6A184B134358
S2144010900B6200BF154B9B6E03F00803002BF9D084
S2144010A000237B6003E000BF7B6801337B607B6886
S2144010B0B3F5FA7FF7D300BF0C4B1B6A03F0080367
S2144010C0002BF9D0094B1B6F7B607B6823F4C00371
S2144010D07B607B6843F480037B60044A7B681367CD
S2144010E000BF0C37BD465DF8047B704700060E40D7
S2144010F00400370090B599B000AF78607B68013B3C
S214401100042B00F2A38101A252F823F021114000E3
S214401110211140003D1140003D1140002B1440007D
S214401120714A714B1B6923F0040313616F4B012214
S2144011301A70BFF35F8F62B630BF87E17B68032BC0
S21440114003D100206A4B984703E04FF40010684BE9
S214401150984772B6BFF35F8F644B00221A70654B98
S21440116001221A707B68042B0CBF01230023DAB2DD
S21440117007F11C033B6407F11803FB6307F11403F4
S214401180BB6307F110037B6307F10C033B63134615
S21440119087F82F30584B1B6ABB62574B1B6B7B62E2
S2144011A0564B1B683B623B6C002B02D03B6CBA6ACA
S2144011B01A60FB6B002B03D04F4B9A6AFB6B1A608E
S2144011C0BB6B002B02D0BB6B00221A607B6B002BE4
S2144011D002D07B6B7A6A1A603B6B002B02D03B6B6B
S2144011E03A6A1A604449BA6A454B13430B627B6AB3
S2144011F003F00303012B0ED97B6A23F0030343F06D
S21440120001037B623C4A7B6A13633B4B9B6E03F055
S2144012100803002BF9D07B6A03F07003002B0CD038
S2144012207B6A23F070037B62334A7B6A1363324BDC
S2144012309B6E03F00803002BF9D0324B98472E4B99
S2144012409B6E03F40033002BF9D02B492A4B1A6AC5
S2144012502D4B134043F45C130B62274B9B6E03F4F9
S2144012608033002BF9D0254A3B6A23F47063136021
S21440127097F82F30002B07D01F491F4B1A6A234B75
S214401280134043F45C130B62184B01221A70BFF3F1
S2144012905F8F62B61E4B984772B6BFF35F8F134B95
S2144012A000221A70FC69B86979693A69FB68FC657E
S2144012B0B86579653A65FB640023BB64FB6D03F053
S2144012C00203002B2CD00C490B4B1B6A114A1A40C8
S2144012D0114B13430B620849074B1A6A0F4B1340D6
S2144012E043F45C130B624EE000ED00E00A00402041
S2144012F045104000D404402000060E40000C0E402E
S214401300080037006D0F4000FFFFC8FEFEFFC8FF15
S21440131065104000FCFFC8FE0200370187FFC8FF8B
S214401320FB6D03F00103002B2DD04A4B1B6A03F0E4
S2144013300103002B0DD14749464B1B6A464A1A40CB
S214401340464B13430B62434B9B6E03F00103002B4B
S214401350F9D0404B1B6A03F08073002B0BD13D49FC
S2144013603C4B1A6A3E4B13430B623A4B9B6E03F45C
S2144013708033002BF9D03749364B1A6A394B134025
S21440138043F45C130B62BA6D374B1340002B08D006
S214401390304ABB6D43F000539362BB6C43F002038C
S2144013A0BB643B6D03F00303022B05D1294B9B6EB8
S2144013B003F00203002BF9D0264B1B6B7B642549B8
S2144013C07B6C23F070023B6D03F0700313430B639A
S2144013D0204B9B6E03F00803002BF9D0234AFB6C8E
S2144013E013601C4A3B6D13631A4B9B6E03F0080355
S2144013F0002BF9D0174B9A6EBB6C1340002BF9D0DC
S2144014001B4B00221A701B4B1B68002B05D0194B38
S2144014101B689847174B00221A60174B01221A7018
S214401420BFF35F8F62B600BF10E0144A134B1B69D0
S21440143043F004031361124B124A1A600E4B01220A
S2144014401A70BFF35F8F62B630BF00BF00BF64370D
S214401450BD4690BD00060E40FCFFC8FF01003700A9
S2144014600000370187FFC8FF0000FF07000C0E4052
S214401470D4044020D80440200A00402000ED00E07C
S21440148010180E40040000A580B483B000AFEFF300
S21440149010837B607B68002B0CBF01230023DBB2EC
S2144014A03B6072B6BFF35F8F044B00221A703B68F6
S2144014B018460C37BD465DF8047B70470A0040204E
S2144014C080B483B000AF78607B68002B14BF0123E4
S2144014D00023DBB218460C37BD465DF8047B7047E8
S2144014E080B582B000AF78607868074B984703466F
S2144014F0002B05D0054B01221A70BFF35F8F62B6F2
S21440150000BF0837BD4680BDC11440000A004020D9
S21440151080B584B000AF1E4BFB601E4BBB60FA68C4
S214401520BB689A420CD007E0BB681A1DBA60FA68DE
S214401530111DF96012681A60BB68174A9342F3D3CC
S214401540164BBB6004E0BB681A1DBA6000221A60E6
S214401550BB68134A9342F6D3124BFB60124AFB68B1
S21440156023F07F039360114B98477860104A104BE6
S2144015701B6843F470031360BFF34F8FBFF36F8F46
S21440158078680C4B98470C4B98470C4B9847FEE7AF
S21440159028204000000040204404402044044020CE
S2144015A0840540200000400000ED00E08914400023
S2144015B088ED00E0E1144000891E40002D1B4000ED
S2144015C080B400AFFEE7000080B400AF524B1B6B08
S2144015D003F00303012B14D0012B02D3022B38D087
S2144015E07AE04E4B5B6903F08003002B04D04C4BF3
S2144015F04FF400421A606FE0494B4FF4FA421A60CB
S2144016006AE0454B1B6A03F08073002B03D0444BC3
S214401610444A1A6060E0424B434A1A603E4B1B6A9B
S21440162003F07003102B04D0202B08D0002B0ED0D4
S2144016300EE03B4B1B685B00394A136008E0384BB2
S2144016401A6813465B001344354A136000E000BF37
S21440165042E0314B1B6A03F08073002B03D0304BC3
S214401660304A1A601CE02E4B2F4A1A602A4B1B6ADF
S21440167003F07003102B04D0202B08D0002B0ED084
S2144016800EE0274B1B685B00254A136008E0244B9E
S2144016901A6813465B001344214A136000E000BFFB
S2144016A01D4B1B6B03F00303022B14D11A4B9B6A92
S2144016B01B0CC3F30A030133194A126802FB03F3F7
S2144016C0174A1360144B9B6ADBB2154A1268B2FB8A
S2144016D0F3F3134A136000BF0F4B1B6B03F070030A
S2144016E0702B08D10E4B1B68104AA2FB03235B08E5
S2144016F00B4A13600AE0084B1B6B1B0903F00703F9
S214401700074A126822FA03F3054A136000BFBD4633
S2144017105DF8047B704700BF00060E4010180E4070
S21440172010004020001BB70000093D00ABAAAAAA43
S21440173080B483B000AF78607B68194A934204D87F
S214401740184B4FF080621A6023E07B68164A93423B
S21440175003D8144B154A1A601BE07B68144A934220
S21440176003D8104B134A1A6013E07B68124A934220
S21440177003D80C4B114A1A600BE07B68104A934220
S21440178004D8084B4FF004221A6002E0054B0D4A7D
S2144017901A6000BF0C37BD465DF8047B704700BF3B
S2144017A0FF2C3101000C0E40FF596202000100047C
S2144017B0FF86930300020004FFB3C4040003000442
S2144017C0FFE0F5050005000480B483B000AF034693
S2144017D0FB71094997F907305B09FA7902F01F0255
S2144017E0012000FA02F241F8232000BF0C37BD4624
S2144017F05DF8047B704700BF00E100E080B483B032
S21440180000AF03463960FB7197F90730002B0BDABF
S2144018100D49FB7903F00F03043B3A68D2B25201FC
S214401820D2B20B441A7609E0084997F907303A686D
S214401830D2B25201D2B20B4483F8002300BF0C3719
S214401840BD465DF8047B704700ED00E000E100E037
S21440185080B483B000AF78607B68072B25D801A2A0
S21440186052F823F0851840008B184000911840002D
S214401870971840009B1840009F184000A31840004F
S214401880A71840004FF4FA4310E04FF400430DE031
S2144018904FF400430AE0084B08E0084B06E0084BCC
S2144018A004E0074B02E0064B00E0002318460C37E6
S2144018B0BD465DF8047B704700093D0000127A0083
S2144018C0001BB70080B500AF0620054B9847024680
S2144018D013469B0013449A001344184680BD00BF2D
S2144018E05118400080B500AF024B98470346184653
S2144018F080BD00BFC518400080B500AF4FF4006201
S2144019004FF020510548064B98470346002B02D01F
S214401910044B01221A7000BF80BD00BF000E0E406F
S214401920550740005C054020F0B585B000AF7860B4
S21440193039600023FB608EE04FF480714A484B4B81
S21440194098473B68002B26D03B681D464FEAE57615
S214401950474B984703464FF0000403FB06F105FB50
S21440196004F20A44A5FB03342244144641F22B7188
S2144019704FF000025D1844EB0206284631463D4CC7
S21440198041F22C724FF00003A04703460C4618461F
S214401990394B984716E0364B984703464FF00004BD
S2144019A036494FF000025D1844EB020628463146A1
S2144019B0304C334A4FF00003A04703460C461846C7
S2144019C02D4B98474FF4807127482E4B98473B68DD
S2144019D0002B26D03B681D464FEAE576244B9847B9
S2144019E003464FF0000403FB06F105FB04F20A44ED
S2144019F0A5FB03342244144641F22B714FF00002FB
S214401A005D1844EB0206284631461A4C41F22C72C9
S214401A104FF00003A04703460C461846164B98471F
S214401A2016E0134B984703464FF0000413494FF017
S214401A3000025D1844EB0206284631460D4C104A1B
S214401A404FF00003A04703460C4618460A4B9847FB
S214401A50FB680133FB60FA687B689A42FFF66CAF1E
S214401A6000BF1437BD46F0BD00120E403907400097
S214401A70E5184000791B400001004020DF835A00F3
S214401A80E0835A001D07400090B583B002AF0C209B
S214401A901B4B984700234FF480724FF04051194833
S214401AA0194CA0470A20164B984709234FF400626A
S214401AB04FF020511548144CA0473C224FF400618B
S214401AC01248134B9847134B009340234FF4006241
S214401AD00A210E48104CA0474FF400610B480F4BAC
S214401AE098470A480E4B98470A200E4B98470421C1
S214401AF00A200D4B984700BF0437BD4690BD00BF37
S214401B00C10F400000120E4091094000000E0E40EA
S214401B10E5064000F9184000E50B4000C90A4000C1
S214401B20010B4000C9174000FD17400080B500AFCC
S214401B300B4B98470B4B4FF400425A600A4B984762
S214401B400A4B1B78DBB2002B06D0C8210520084B79
S214401B509847064B00221A700220064B9847EFE73C
S214401B60AD04400050180E40891A40005C054020E5
S214401B7029194000F510400053B94AB9002908BF5A
S214401B8000281CBF4FF0FF314FF0FF3000F07AB90D
S214401B90ADF1080C6DE904CE00F006F8DDF804E07F
S214401BA0DDE9022304B070472DE9F0478C460D4628
S214401BB00446089E002B51D18A4217466DD9B2FA88
S214401BC082FEBEF1000F0BD0CEF1200C01FA0EF5CE
S214401BD020FA0CFC02FA0EF74CEA050C00FA0EF45A
S214401BE04FEA174A250CBCFBFAF81FFA87F90AFB9E
S214401BF018CC45EA0C4508FB09F3AB420AD9ED1967
S214401C0008F1FF3280F02381AB4240F22081A8F1F8
S214401C1002083D44ED1AA4B2B5FBFAF00AFB105593
S214401C2044EA054400FB09F9A14509D9E41900F145
S214401C30FF3380F00A81A14540F2078102383C44D8
S214401C40A4EB090440EA08400021002E61D024FAA3
S214401C500EF4002334607360BDE8F0878B4207D9EA
S214401C60002E54D0002186E821000846BDE8F087C3
S214401C70B3FA83F1002940F08E80AB4202D3824211
S214401C8000F2FA80841A65EB03050120AC46002E6C
S214401C903FD086E81010BDE8F08712B90127B7FBA1
S214401CA0F2F7B7FA87FEBEF1000F34D1EB1B3A0CC1
S214401CB01FFA87FC0121B3FBF2F8250C02FB183310
S214401CC045EA03450CFB08F3AB4207D9ED1908F18A
S214401CD0FF3002D2AB4200F2D1808046ED1AA3B26A
S214401CE0B5FBF2F002FB105543EA05440CFB00FC42
S214401CF0A44507D9E41900F1FF3302D2A44500F207
S214401D00B8801846A4EB0C0440EA08409DE73146EC
S214401D103046BDE8F087CEF1200405FA0EF307FA08
S214401D200EF720FA04F83A0C25FA04F448EA0308B9
S214401D30B4FBF2F14FEA184502FB11441FFA87FC48
S214401D4045EA044501FB0CF3AB4200FA0EF409D910
S214401D50ED1901F1FF3080F08A80AB4240F2878077
S214401D6002393D44EB1A1FFA88F5B3FBF2F002FB4A
S214401D70103345EA034500FB0CF3AB4207D9ED1997
S214401D8000F1FF386FD2AB426DD902383D44EB1AB2
S214401D9040EA01418FE7C1F1200722FA07F88B405D
S214401DA005FA01F448EA030320FA07FE4FEA134C0B
S214401DB0FD404EEA040EB5FBFCF94FEA1E440CFB10
S214401DC019551FFA83F844EA054509FB08F4AC4266
S214401DD002FA01F200FA01FA08D9ED1809F1FF30CB
S214401DE043D2AC4241D9A9F102091D442D1B1FFA2A
S214401DF08EFEB5FBFCF00CFB10554EEA054400FB8E
S214401E0008F8A04507D9E41800F1FF3529D2A045C7
S214401E1027D902381C4440EA0940A4EB0804A0FB3A
S214401E2002894C45C6464D4615D312D056B1BAEB3C
S214401E300E0364EB050404FA07F7CB401F43CC407F
S214401E40376074600021BDE8F0871846F8E6904693
S214401E50E0E6C245EAD2B8EB020E69EB030501386C
S214401E60E4E72846D7E7404691E78146BEE7014685
S214401E7078E702383C4445E7084608E7A8F10208F8
S214401E803D442BE7704700BF70B50F4E0F4D761B95
S214401E90B61018BF002405D0013455F8043B9847C7
S214401EA0A642F9D10A4E0B4D761B00F0A7F8B610A5
S214401EB018BF002406D0013455F8043B9847A64284
S214401EC0F9D170BD70BD00BF08204000082040001A
S214401ED01020400008204000024B13B1024800F09A
S214401EE005B8704700000000F91E40000023014678
S214401EF01A46184600F01EB838B50A4C0A4D641B00
S214401F00A4100AD004F18043013B05EB8305013C55
S214401F1055F804399847002CF9D1BDE8384000F010
S214401F2077B800BF202040001C204000704700BF0C
S214401F30704700BF2DE9F8432C4D06462868984662
S214401F400F469146FFF7F2FF294B1C68D4F84831FC
S214401F50002B3ED05A681F2A1CDC02F1010E76B1D7
S214401F6003EB82010124C1F88890D3F8880194409D
S214401F702043022EC3F88801C1F8088123D00232DC
S214401F80C3F804E0286843F82270FFF7D1FF00202A
S214401F90BDE8F883174B0BB34FF4C870AFF300801F
S214401FA00346D8B1D4F848210260002141600A4671
S214401FB0C4F848014FF0010EC0F88811C0F88C11E3
S214401FC0002EDCD0CCE7D3F88C110C43C3F88C4100
S214401FD0D5E704F5A673C4F84831BBE72868FFF791
S214401FE0A7FF4FF0FF30BDE8F88300BF4004402015
S214401FF0F81F40000000000018004020F8B500BF61
S214402000F8BC08BC9E467047D91E4000650140009B
S214402010F8B500BFF8BC08BC9E467047410140007A
S20C40202088FBFF7F0100000071
S214402028BFF35F8F0138FBD17047010000002000E6
S21440203800093D00000000000000000004034020A6
S2144020486C034020D403402000000000000000003D
S2144020580000000000000000000000000000000033
S2144020680000000000000000000000000000000023
S2144020780000000000000000000000000000000013
S2144020880000000000000000000000000000000003
S21440209800000000000000000000000000000000F3
S2144020A800000000000000000000000000000000E3
S2144020B800000000000000000000000000000000D3
S2144020C800000000000000000000000000000000C3
S2144020D800000000000000000000000000000000B3
S2144020E801000000000000000E33CDAB34126DE650
S2144020F8ECDE05000B0000000000000000000000B9
S2144021080000000000000000000000000000000082
S2144021180000000000000000000000000000000072
S2144021280000000000000000000000000000000062
S2144021380000000000000000000000000000000052
S2084024686005402066
S80440151195
